{
    "_format": "hh-sol-artifact-1",
    "contractName": "Domains",
    "sourceName": "contracts/Domains.sol",
    "abi": [
        {
            "inputs": [
                {
                    "internalType": "string",
                    "name": "_tld",
                    "type": "string"
                }
            ],
            "stateMutability": "payable",
            "type": "constructor"
        },
        {
            "inputs": [],
            "name": "AlreadyRegistered",
            "type": "error"
        },
        {
            "inputs": [
                {
                    "internalType": "string",
                    "name": "name",
                    "type": "string"
                }
            ],
            "name": "InvalidName",
            "type": "error"
        },
        {
            "inputs": [],
            "name": "Unauthorized",
            "type": "error"
        },
        {
            "anonymous": false,
            "inputs": [
                {
                    "indexed": true,
                    "internalType": "address",
                    "name": "owner",
                    "type": "address"
                },
                {
                    "indexed": true,
                    "internalType": "address",
                    "name": "approved",
                    "type": "address"
                },
                {
                    "indexed": true,
                    "internalType": "uint256",
                    "name": "tokenId",
                    "type": "uint256"
                }
            ],
            "name": "Approval",
            "type": "event"
        },
        {
            "anonymous": false,
            "inputs": [
                {
                    "indexed": true,
                    "internalType": "address",
                    "name": "owner",
                    "type": "address"
                },
                {
                    "indexed": true,
                    "internalType": "address",
                    "name": "operator",
                    "type": "address"
                },
                {
                    "indexed": false,
                    "internalType": "bool",
                    "name": "approved",
                    "type": "bool"
                }
            ],
            "name": "ApprovalForAll",
            "type": "event"
        },
        {
            "anonymous": false,
            "inputs": [
                {
                    "indexed": true,
                    "internalType": "address",
                    "name": "from",
                    "type": "address"
                },
                {
                    "indexed": true,
                    "internalType": "address",
                    "name": "to",
                    "type": "address"
                },
                {
                    "indexed": true,
                    "internalType": "uint256",
                    "name": "tokenId",
                    "type": "uint256"
                }
            ],
            "name": "Transfer",
            "type": "event"
        },
        {
            "inputs": [
                {
                    "internalType": "address",
                    "name": "to",
                    "type": "address"
                },
                {
                    "internalType": "uint256",
                    "name": "tokenId",
                    "type": "uint256"
                }
            ],
            "name": "approve",
            "outputs": [],
            "stateMutability": "nonpayable",
            "type": "function"
        },
        {
            "inputs": [
                {
                    "internalType": "address",
                    "name": "owner",
                    "type": "address"
                }
            ],
            "name": "balanceOf",
            "outputs": [
                {
                    "internalType": "uint256",
                    "name": "",
                    "type": "uint256"
                }
            ],
            "stateMutability": "view",
            "type": "function"
        },
        {
            "inputs": [
                {
                    "internalType": "string",
                    "name": "",
                    "type": "string"
                }
            ],
            "name": "domains",
            "outputs": [
                {
                    "internalType": "address",
                    "name": "",
                    "type": "address"
                }
            ],
            "stateMutability": "view",
            "type": "function"
        },
        {
            "inputs": [
                {
                    "internalType": "string",
                    "name": "name",
                    "type": "string"
                }
            ],
            "name": "getAddress",
            "outputs": [
                {
                    "internalType": "address",
                    "name": "",
                    "type": "address"
                }
            ],
            "stateMutability": "view",
            "type": "function"
        },
        {
            "inputs": [],
            "name": "getAllNames",
            "outputs": [
                {
                    "internalType": "string[]",
                    "name": "",
                    "type": "string[]"
                }
            ],
            "stateMutability": "view",
            "type": "function"
        },
        {
            "inputs": [
                {
                    "internalType": "uint256",
                    "name": "tokenId",
                    "type": "uint256"
                }
            ],
            "name": "getApproved",
            "outputs": [
                {
                    "internalType": "address",
                    "name": "",
                    "type": "address"
                }
            ],
            "stateMutability": "view",
            "type": "function"
        },
        {
            "inputs": [
                {
                    "internalType": "string",
                    "name": "name",
                    "type": "string"
                }
            ],
            "name": "getRecord",
            "outputs": [
                {
                    "internalType": "string",
                    "name": "",
                    "type": "string"
                }
            ],
            "stateMutability": "view",
            "type": "function"
        },
        {
            "inputs": [
                {
                    "internalType": "address",
                    "name": "owner",
                    "type": "address"
                },
                {
                    "internalType": "address",
                    "name": "operator",
                    "type": "address"
                }
            ],
            "name": "isApprovedForAll",
            "outputs": [
                {
                    "internalType": "bool",
                    "name": "",
                    "type": "bool"
                }
            ],
            "stateMutability": "view",
            "type": "function"
        },
        {
            "inputs": [],
            "name": "isOwner",
            "outputs": [
                {
                    "internalType": "bool",
                    "name": "",
                    "type": "bool"
                }
            ],
            "stateMutability": "view",
            "type": "function"
        },
        {
            "inputs": [],
            "name": "name",
            "outputs": [
                {
                    "internalType": "string",
                    "name": "",
                    "type": "string"
                }
            ],
            "stateMutability": "view",
            "type": "function"
        },
        {
            "inputs": [
                {
                    "internalType": "uint256",
                    "name": "",
                    "type": "uint256"
                }
            ],
            "name": "names",
            "outputs": [
                {
                    "internalType": "string",
                    "name": "",
                    "type": "string"
                }
            ],
            "stateMutability": "view",
            "type": "function"
        },
        {
            "inputs": [],
            "name": "owner",
            "outputs": [
                {
                    "internalType": "address payable",
                    "name": "",
                    "type": "address"
                }
            ],
            "stateMutability": "view",
            "type": "function"
        },
        {
            "inputs": [
                {
                    "internalType": "uint256",
                    "name": "tokenId",
                    "type": "uint256"
                }
            ],
            "name": "ownerOf",
            "outputs": [
                {
                    "internalType": "address",
                    "name": "",
                    "type": "address"
                }
            ],
            "stateMutability": "view",
            "type": "function"
        },
        {
            "inputs": [
                {
                    "internalType": "string",
                    "name": "name",
                    "type": "string"
                }
            ],
            "name": "price",
            "outputs": [
                {
                    "internalType": "uint256",
                    "name": "",
                    "type": "uint256"
                }
            ],
            "stateMutability": "pure",
            "type": "function"
        },
        {
            "inputs": [
                {
                    "internalType": "string",
                    "name": "",
                    "type": "string"
                }
            ],
            "name": "records",
            "outputs": [
                {
                    "internalType": "string",
                    "name": "",
                    "type": "string"
                }
            ],
            "stateMutability": "view",
            "type": "function"
        },
        {
            "inputs": [
                {
                    "internalType": "string",
                    "name": "name",
                    "type": "string"
                }
            ],
            "name": "register",
            "outputs": [],
            "stateMutability": "payable",
            "type": "function"
        },
        {
            "inputs": [
                {
                    "internalType": "address",
                    "name": "from",
                    "type": "address"
                },
                {
                    "internalType": "address",
                    "name": "to",
                    "type": "address"
                },
                {
                    "internalType": "uint256",
                    "name": "tokenId",
                    "type": "uint256"
                }
            ],
            "name": "safeTransferFrom",
            "outputs": [],
            "stateMutability": "nonpayable",
            "type": "function"
        },
        {
            "inputs": [
                {
                    "internalType": "address",
                    "name": "from",
                    "type": "address"
                },
                {
                    "internalType": "address",
                    "name": "to",
                    "type": "address"
                },
                {
                    "internalType": "uint256",
                    "name": "tokenId",
                    "type": "uint256"
                },
                {
                    "internalType": "bytes",
                    "name": "data",
                    "type": "bytes"
                }
            ],
            "name": "safeTransferFrom",
            "outputs": [],
            "stateMutability": "nonpayable",
            "type": "function"
        },
        {
            "inputs": [
                {
                    "internalType": "address",
                    "name": "operator",
                    "type": "address"
                },
                {
                    "internalType": "bool",
                    "name": "approved",
                    "type": "bool"
                }
            ],
            "name": "setApprovalForAll",
            "outputs": [],
            "stateMutability": "nonpayable",
            "type": "function"
        },
        {
            "inputs": [
                {
                    "internalType": "string",
                    "name": "name",
                    "type": "string"
                },
                {
                    "internalType": "string",
                    "name": "record",
                    "type": "string"
                }
            ],
            "name": "setRecord",
            "outputs": [],
            "stateMutability": "nonpayable",
            "type": "function"
        },
        {
            "inputs": [
                {
                    "internalType": "bytes4",
                    "name": "interfaceId",
                    "type": "bytes4"
                }
            ],
            "name": "supportsInterface",
            "outputs": [
                {
                    "internalType": "bool",
                    "name": "",
                    "type": "bool"
                }
            ],
            "stateMutability": "view",
            "type": "function"
        },
        {
            "inputs": [],
            "name": "symbol",
            "outputs": [
                {
                    "internalType": "string",
                    "name": "",
                    "type": "string"
                }
            ],
            "stateMutability": "view",
            "type": "function"
        },
        {
            "inputs": [],
            "name": "tld",
            "outputs": [
                {
                    "internalType": "string",
                    "name": "",
                    "type": "string"
                }
            ],
            "stateMutability": "view",
            "type": "function"
        },
        {
            "inputs": [
                {
                    "internalType": "uint256",
                    "name": "tokenId",
                    "type": "uint256"
                }
            ],
            "name": "tokenURI",
            "outputs": [
                {
                    "internalType": "string",
                    "name": "",
                    "type": "string"
                }
            ],
            "stateMutability": "view",
            "type": "function"
        },
        {
            "inputs": [
                {
                    "internalType": "address",
                    "name": "from",
                    "type": "address"
                },
                {
                    "internalType": "address",
                    "name": "to",
                    "type": "address"
                },
                {
                    "internalType": "uint256",
                    "name": "tokenId",
                    "type": "uint256"
                }
            ],
            "name": "transferFrom",
            "outputs": [],
            "stateMutability": "nonpayable",
            "type": "function"
        },
        {
            "inputs": [
                {
                    "internalType": "string",
                    "name": "name",
                    "type": "string"
                }
            ],
            "name": "valid",
            "outputs": [
                {
                    "internalType": "bool",
                    "name": "",
                    "type": "bool"
                }
            ],
            "stateMutability": "pure",
            "type": "function"
        },
        {
            "inputs": [],
            "name": "withdraw",
            "outputs": [],
            "stateMutability": "nonpayable",
            "type": "function"
        }
    ],
    "bytecode": "0x6080604052604051806108a0016040528061086b81526020016200506761086b9139600a908051906020019062000038929190620002c8565b506040518060400160405280600d81526020017f3c2f746578743e3c2f7376673e00000000000000000000000000000000000000815250600b908051906020019062000086929190620002c8565b50604051620058d2380380620058d28339818101604052810190620000ac919062000515565b6040518060400160405280601281526020017f5669626573204e616d65205365727669636500000000000000000000000000008152506040518060400160405280600381526020017f564e530000000000000000000000000000000000000000000000000000000000815250816000908051906020019062000130929190620002c8565b50806001908051906020019062000149929190620002c8565b50505033600960006101000a81548173ffffffffffffffffffffffffffffffffffffffff021916908373ffffffffffffffffffffffffffffffffffffffff1602179055508060089080519060200190620001a5929190620002c8565b50620001f26040518060400160405280601881526020017f2573206e616d652073657276696365206465706c6f796564000000000000000081525082620001f960201b62001b4e1760201c565b5062000663565b6200029b828260405160240162000212929190620005c3565b6040516020818303038152906040527f4b5c4277000000000000000000000000000000000000000000000000000000007bffffffffffffffffffffffffffffffffffffffffffffffffffffffff19166020820180517bffffffffffffffffffffffffffffffffffffffffffffffffffffffff83818316178352505050506200029f60201b60201c565b5050565b60008151905060006a636f6e736f6c652e6c6f679050602083016000808483855afa5050505050565b828054620002d6906200062d565b90600052602060002090601f016020900481019282620002fa576000855562000346565b82601f106200031557805160ff191683800117855562000346565b8280016001018555821562000346579182015b828111156200034557825182559160200191906001019062000328565b5b50905062000355919062000359565b5090565b5b80821115620003745760008160009055506001016200035a565b5090565b6000604051905090565b600080fd5b600080fd5b600080fd5b600080fd5b6000601f19601f8301169050919050565b7f4e487b7100000000000000000000000000000000000000000000000000000000600052604160045260246000fd5b620003e18262000396565b810181811067ffffffffffffffff82111715620004035762000402620003a7565b5b80604052505050565b60006200041862000378565b9050620004268282620003d6565b919050565b600067ffffffffffffffff821115620004495762000448620003a7565b5b620004548262000396565b9050602081019050919050565b60005b838110156200048157808201518184015260208101905062000464565b8381111562000491576000848401525b50505050565b6000620004ae620004a8846200042b565b6200040c565b905082815260208101848484011115620004cd57620004cc62000391565b5b620004da84828562000461565b509392505050565b600082601f830112620004fa57620004f96200038c565b5b81516200050c84826020860162000497565b91505092915050565b6000602082840312156200052e576200052d62000382565b5b600082015167ffffffffffffffff8111156200054f576200054e62000387565b5b6200055d84828501620004e2565b91505092915050565b600081519050919050565b600082825260208201905092915050565b60006200058f8262000566565b6200059b818562000571565b9350620005ad81856020860162000461565b620005b88162000396565b840191505092915050565b60006040820190508181036000830152620005df818562000582565b90508181036020830152620005f5818462000582565b90509392505050565b7f4e487b7100000000000000000000000000000000000000000000000000000000600052602260045260246000fd5b600060028204905060018216806200064657607f821691505b602082108114156200065d576200065c620005fe565b5b50919050565b6149f480620006736000396000f3fe60806040526004361061019c5760003560e01c806370a08231116100ec578063bf40fac11161008a578063e985e9c511610064578063e985e9c514610624578063f2c298be14610661578063fb825e5f1461067d578063fe2c6198146106a85761019c565b8063bf40fac114610581578063c1880a98146105be578063c87b56dd146105e75761019c565b806395d89b41116100c657806395d89b41146104c75780639791c097146104f2578063a22cb4651461052f578063b88d4fde146105585761019c565b806370a08231146104345780638da5cb5b146104715780638f32d59b1461049c5761019c565b8063264492351161015957806342842e0e1161013357806342842e0e146103545780634622ab031461037d578063541e771d146103ba5780636352211e146103f75761019c565b806326449235146102d55780632d551432146103125780633ccfd60b1461033d5761019c565b806301ffc9a7146101a157806306fdde03146101de578063081812fc14610209578063095ea7b31461024657806311dd88451461026f57806323b872dd146102ac575b600080fd5b3480156101ad57600080fd5b506101c860048036038101906101c39190612ff6565b6106e5565b6040516101d5919061303e565b60405180910390f35b3480156101ea57600080fd5b506101f36107c7565b60405161020091906130f2565b60405180910390f35b34801561021557600080fd5b50610230600480360381019061022b919061314a565b610859565b60405161023d91906131b8565b60405180910390f35b34801561025257600080fd5b5061026d600480360381019061026891906131ff565b61089f565b005b34801561027b57600080fd5b50610296600480360381019061029191906132a4565b6109b7565b6040516102a391906130f2565b60405180910390f35b3480156102b857600080fd5b506102d360048036038101906102ce91906132f1565b610a6a565b005b3480156102e157600080fd5b506102fc60048036038101906102f79190613474565b610aca565b60405161030991906131b8565b60405180910390f35b34801561031e57600080fd5b50610327610b13565b60405161033491906130f2565b60405180910390f35b34801561034957600080fd5b50610352610ba1565b005b34801561036057600080fd5b5061037b600480360381019061037691906132f1565b610c67565b005b34801561038957600080fd5b506103a4600480360381019061039f919061314a565b610c87565b6040516103b191906130f2565b60405180910390f35b3480156103c657600080fd5b506103e160048036038101906103dc9190613474565b610d27565b6040516103ee91906130f2565b60405180910390f35b34801561040357600080fd5b5061041e6004803603810190610419919061314a565b610ddd565b60405161042b91906131b8565b60405180910390f35b34801561044057600080fd5b5061045b600480360381019061045691906134bd565b610e8f565b60405161046891906134f9565b60405180910390f35b34801561047d57600080fd5b50610486610f47565b6040516104939190613535565b60405180910390f35b3480156104a857600080fd5b506104b1610f6d565b6040516104be919061303e565b60405180910390f35b3480156104d357600080fd5b506104dc610fc5565b6040516104e991906130f2565b60405180910390f35b3480156104fe57600080fd5b50610519600480360381019061051491906132a4565b611057565b604051610526919061303e565b60405180910390f35b34801561053b57600080fd5b506105566004803603810190610551919061357c565b61110b565b005b34801561056457600080fd5b5061057f600480360381019061057a919061365d565b611121565b005b34801561058d57600080fd5b506105a860048036038101906105a391906132a4565b611183565b6040516105b591906131b8565b60405180910390f35b3480156105ca57600080fd5b506105e560048036038101906105e091906136e0565b6111ce565b005b3480156105f357600080fd5b5061060e6004803603810190610609919061314a565b6112a9565b60405161061b91906130f2565b60405180910390f35b34801561063057600080fd5b5061064b60048036038101906106469190613761565b6113bc565b604051610658919061303e565b60405180910390f35b61067b600480360381019061067691906132a4565b611450565b005b34801561068957600080fd5b506106926118ce565b60405161069f91906138ad565b60405180910390f35b3480156106b457600080fd5b506106cf60048036038101906106ca91906132a4565b611aac565b6040516106dc91906134f9565b60405180910390f35b60007f80ac58cd000000000000000000000000000000000000000000000000000000007bffffffffffffffffffffffffffffffffffffffffffffffffffffffff1916827bffffffffffffffffffffffffffffffffffffffffffffffffffffffff191614806107b057507f5b5e139f000000000000000000000000000000000000000000000000000000007bffffffffffffffffffffffffffffffffffffffffffffffffffffffff1916827bffffffffffffffffffffffffffffffffffffffffffffffffffffffff1916145b806107c057506107bf82611bea565b5b9050919050565b6060600080546107d6906138fe565b80601f0160208091040260200160405190810160405280929190818152602001828054610802906138fe565b801561084f5780601f106108245761010080835404028352916020019161084f565b820191906000526020600020905b81548152906001019060200180831161083257829003601f168201915b5050505050905090565b600061086482611c54565b6004600083815260200190815260200160002060009054906101000a900473ffffffffffffffffffffffffffffffffffffffff169050919050565b60006108aa82610ddd565b90508073ffffffffffffffffffffffffffffffffffffffff168373ffffffffffffffffffffffffffffffffffffffff16141561091b576040517f08c379a0000000000000000000000000000000000000000000000000000000008152600401610912906139a2565b60405180910390fd5b8073ffffffffffffffffffffffffffffffffffffffff1661093a611c9f565b73ffffffffffffffffffffffffffffffffffffffff161480610969575061096881610963611c9f565b6113bc565b5b6109a8576040517f08c379a000000000000000000000000000000000000000000000000000000000815260040161099f90613a34565b60405180910390fd5b6109b28383611ca7565b505050565b6060600e83836040516109cb929190613a84565b908152602001604051809103902080546109e4906138fe565b80601f0160208091040260200160405190810160405280929190818152602001828054610a10906138fe565b8015610a5d5780601f10610a3257610100808354040283529160200191610a5d565b820191906000526020600020905b815481529060010190602001808311610a4057829003601f168201915b5050505050905092915050565b610a7b610a75611c9f565b82611d60565b610aba576040517f08c379a0000000000000000000000000000000000000000000000000000000008152600401610ab190613b0f565b60405180910390fd5b610ac5838383611df5565b505050565b600c818051602081018201805184825260208301602085012081835280955050505050506000915054906101000a900473ffffffffffffffffffffffffffffffffffffffff1681565b60088054610b20906138fe565b80601f0160208091040260200160405190810160405280929190818152602001828054610b4c906138fe565b8015610b995780601f10610b6e57610100808354040283529160200191610b99565b820191906000526020600020905b815481529060010190602001808311610b7c57829003601f168201915b505050505081565b610ba9610f6d565b610bb257600080fd5b600047905060003373ffffffffffffffffffffffffffffffffffffffff1682604051610bdd90613b60565b60006040518083038185875af1925050503d8060008114610c1a576040519150601f19603f3d011682016040523d82523d6000602084013e610c1f565b606091505b5050905080610c63576040517f08c379a0000000000000000000000000000000000000000000000000000000008152600401610c5a90613bc1565b60405180910390fd5b5050565b610c8283838360405180602001604052806000815250611121565b505050565b600d6020528060005260406000206000915090508054610ca6906138fe565b80601f0160208091040260200160405190810160405280929190818152602001828054610cd2906138fe565b8015610d1f5780601f10610cf457610100808354040283529160200191610d1f565b820191906000526020600020905b815481529060010190602001808311610d0257829003601f168201915b505050505081565b600e818051602081018201805184825260208301602085012081835280955050505050506000915090508054610d5c906138fe565b80601f0160208091040260200160405190810160405280929190818152602001828054610d88906138fe565b8015610dd55780601f10610daa57610100808354040283529160200191610dd5565b820191906000526020600020905b815481529060010190602001808311610db857829003601f168201915b505050505081565b6000806002600084815260200190815260200160002060009054906101000a900473ffffffffffffffffffffffffffffffffffffffff169050600073ffffffffffffffffffffffffffffffffffffffff168173ffffffffffffffffffffffffffffffffffffffff161415610e86576040517f08c379a0000000000000000000000000000000000000000000000000000000008152600401610e7d90613c2d565b60405180910390fd5b80915050919050565b60008073ffffffffffffffffffffffffffffffffffffffff168273ffffffffffffffffffffffffffffffffffffffff161415610f00576040517f08c379a0000000000000000000000000000000000000000000000000000000008152600401610ef790613cbf565b60405180910390fd5b600360008373ffffffffffffffffffffffffffffffffffffffff1673ffffffffffffffffffffffffffffffffffffffff168152602001908152602001600020549050919050565b600960009054906101000a900473ffffffffffffffffffffffffffffffffffffffff1681565b60003373ffffffffffffffffffffffffffffffffffffffff16600960009054906101000a900473ffffffffffffffffffffffffffffffffffffffff1673ffffffffffffffffffffffffffffffffffffffff1614905090565b606060018054610fd4906138fe565b80601f0160208091040260200160405190810160405280929190818152602001828054611000906138fe565b801561104d5780601f106110225761010080835404028352916020019161104d565b820191906000526020600020905b81548152906001019060200180831161103057829003601f168201915b5050505050905090565b600060036110a884848080601f016020809104026020016040519081016040528093929190818152602001838380828437600081840152601f19601f8201169050808301925050505050505061205c565b101580156111035750600a61110084848080601f016020809104026020016040519081016040528093929190818152602001838380828437600081840152601f19601f8201169050808301925050505050505061205c565b11155b905092915050565b61111d611116611c9f565b8383612211565b5050565b61113261112c611c9f565b83611d60565b611171576040517f08c379a000000000000000000000000000000000000000000000000000000000815260040161116890613b0f565b60405180910390fd5b61117d8484848461237e565b50505050565b6000600c8383604051611197929190613a84565b908152602001604051809103902060009054906101000a900473ffffffffffffffffffffffffffffffffffffffff16905092915050565b600c84846040516111e0929190613a84565b908152602001604051809103902060009054906101000a900473ffffffffffffffffffffffffffffffffffffffff1673ffffffffffffffffffffffffffffffffffffffff163373ffffffffffffffffffffffffffffffffffffffff1614611273576040517f82b4290000000000000000000000000000000000000000000000000000000000815260040160405180910390fd5b8181600e8686604051611287929190613a84565b908152602001604051809103902091906112a2929190612e61565b5050505050565b60606112b482611c54565b60006006600084815260200190815260200160002080546112d4906138fe565b80601f0160208091040260200160405190810160405280929190818152602001828054611300906138fe565b801561134d5780601f106113225761010080835404028352916020019161134d565b820191906000526020600020905b81548152906001019060200180831161133057829003601f168201915b50505050509050600061135e6123da565b90506000815114156113745781925050506113b7565b6000825111156113a9578082604051602001611391929190613d10565b604051602081830303815290604052925050506113b7565b6113b2846123f1565b925050505b919050565b6000600560008473ffffffffffffffffffffffffffffffffffffffff1673ffffffffffffffffffffffffffffffffffffffff16815260200190815260200160002060008373ffffffffffffffffffffffffffffffffffffffff1673ffffffffffffffffffffffffffffffffffffffff16815260200190815260200160002060009054906101000a900460ff16905092915050565b600073ffffffffffffffffffffffffffffffffffffffff16600c838360405161147a929190613a84565b908152602001604051809103902060009054906101000a900473ffffffffffffffffffffffffffffffffffffffff1673ffffffffffffffffffffffffffffffffffffffff16146114f6576040517f3a81d6fc00000000000000000000000000000000000000000000000000000000815260040160405180910390fd5b6115008282611057565b6115435781816040517f7f19f48d00000000000000000000000000000000000000000000000000000000815260040161153a929190613d61565b60405180910390fd5b600061154f8383611aac565b905080341015611594576040517f08c379a000000000000000000000000000000000000000000000000000000000815260040161158b90613dd1565b60405180910390fd5b6000838360086040516020016115ac93929190613ed1565b60405160208183030381529060405290506000600a82600b6040516020016115d693929190613f02565b604051602081830303815290604052905060006115f36007612459565b9050600061164487878080601f016020809104026020016040519081016040528093929190818152602001838380828437600081840152601f19601f8201169050808301925050505050505061205c565b9050600061165182612467565b90506117456040518060600160405280603181526020016149156031913989898080601f016020809104026020016040519081016040528093929190818152602001838380828437600081840152601f19601f82011690508083019250505050505050600880546116c1906138fe565b80601f01602080910402602001604051908101604052809291908181526020018280546116ed906138fe565b801561173a5780601f1061170f5761010080835404028352916020019161173a565b820191906000526020600020905b81548152906001019060200180831161171d57829003601f168201915b5050505050866125c8565b600061177b866117548761266a565b84604051602001611767939291906140af565b60405160208183030381529060405261266a565b90506000816040516020016117909190614158565b60405160208183030381529060405290506117c26040518060600160405280603981526020016148dc60399139612802565b6118016040518060400160405280600e81526020017f46696e616c20746f6b656e55524900000000000000000000000000000000000081525082611b4e565b61182260405180606001604052806039815260200161494660399139612802565b61182c338661289b565b61183685826128b9565b33600c8b8b604051611849929190613a84565b908152602001604051809103902060006101000a81548173ffffffffffffffffffffffffffffffffffffffff021916908373ffffffffffffffffffffffffffffffffffffffff16021790555061189f600761292d565b8989600d600088815260200190815260200160002091906118c1929190612e61565b5050505050505050505050565b606061190e6040518060400160405280601f81526020017f47657474696e6720616c6c206e616d65732066726f6d20636f6e747261637400815250612802565b600061191a6007612459565b67ffffffffffffffff81111561193357611932613349565b5b60405190808252806020026020018201604052801561196657816020015b60608152602001906001900390816119515790505b50905060005b6119766007612459565b811015611aa457600d6000828152602001908152602001600020805461199b906138fe565b80601f01602080910402602001604051908101604052809291908181526020018280546119c7906138fe565b8015611a145780601f106119e957610100808354040283529160200191611a14565b820191906000526020600020905b8154815290600101906020018083116119f757829003601f168201915b5050505050828281518110611a2c57611a2b61417a565b5b6020026020010181905250611a916040518060400160405280601781526020017f4e616d6520666f7220746f6b656e20256420697320257300000000000000000081525082848481518110611a8457611a8361417a565b5b6020026020010151612943565b8080611a9c906141d8565b91505061196c565b508091505090565b600080611afc84848080601f016020809104026020016040519081016040528093929190818152602001838380828437600081840152601f19601f8201169050808301925050505050505061205c565b905060008111611b0b57600080fd5b60038111611b23576611c37937e08000915050611b48565b6004811415611b3c57660aa87bee538000915050611b48565b66038d7ea4c680009150505b92915050565b611be68282604051602401611b64929190614221565b6040516020818303038152906040527f4b5c4277000000000000000000000000000000000000000000000000000000007bffffffffffffffffffffffffffffffffffffffffffffffffffffffff19166020820180517bffffffffffffffffffffffffffffffffffffffffffffffffffffffff83818316178352505050506129e2565b5050565b60007f01ffc9a7000000000000000000000000000000000000000000000000000000007bffffffffffffffffffffffffffffffffffffffffffffffffffffffff1916827bffffffffffffffffffffffffffffffffffffffffffffffffffffffff1916149050919050565b611c5d81612a0b565b611c9c576040517f08c379a0000000000000000000000000000000000000000000000000000000008152600401611c9390613c2d565b60405180910390fd5b50565b600033905090565b816004600083815260200190815260200160002060006101000a81548173ffffffffffffffffffffffffffffffffffffffff021916908373ffffffffffffffffffffffffffffffffffffffff160217905550808273ffffffffffffffffffffffffffffffffffffffff16611d1a83610ddd565b73ffffffffffffffffffffffffffffffffffffffff167f8c5be1e5ebec7d5bd14f71427d1e84f3dd0314c0f7b2291e5b200ac8c7c3b92560405160405180910390a45050565b600080611d6c83610ddd565b90508073ffffffffffffffffffffffffffffffffffffffff168473ffffffffffffffffffffffffffffffffffffffff161480611dae5750611dad81856113bc565b5b80611dec57508373ffffffffffffffffffffffffffffffffffffffff16611dd484610859565b73ffffffffffffffffffffffffffffffffffffffff16145b91505092915050565b8273ffffffffffffffffffffffffffffffffffffffff16611e1582610ddd565b73ffffffffffffffffffffffffffffffffffffffff1614611e6b576040517f08c379a0000000000000000000000000000000000000000000000000000000008152600401611e62906142ca565b60405180910390fd5b600073ffffffffffffffffffffffffffffffffffffffff168273ffffffffffffffffffffffffffffffffffffffff161415611edb576040517f08c379a0000000000000000000000000000000000000000000000000000000008152600401611ed29061435c565b60405180910390fd5b611ee6838383612a77565b611ef1600082611ca7565b6001600360008573ffffffffffffffffffffffffffffffffffffffff1673ffffffffffffffffffffffffffffffffffffffff1681526020019081526020016000206000828254611f41919061437c565b925050819055506001600360008473ffffffffffffffffffffffffffffffffffffffff1673ffffffffffffffffffffffffffffffffffffffff1681526020019081526020016000206000828254611f9891906143b0565b92505081905550816002600083815260200190815260200160002060006101000a81548173ffffffffffffffffffffffffffffffffffffffff021916908373ffffffffffffffffffffffffffffffffffffffff160217905550808273ffffffffffffffffffffffffffffffffffffffff168473ffffffffffffffffffffffffffffffffffffffff167fddf252ad1be2c89b69c2b068fc378daa952ba7f163c4a11628f55a4df523b3ef60405160405180910390a4612057838383612a7c565b505050565b60008060008084519050600092505b808210156122065760008583815181106120885761208761417a565b5b602001015160f81c60f81b9050608060f81b817effffffffffffffffffffffffffffffffffffffffffffffffffffffffffffff191610156120d7576001836120d091906143b0565b92506121f2565b60e060f81b817effffffffffffffffffffffffffffffffffffffffffffffffffffffffffffff191610156121195760028361211291906143b0565b92506121f1565b60f060f81b817effffffffffffffffffffffffffffffffffffffffffffffffffffffffffffff1916101561215b5760038361215491906143b0565b92506121f0565b60f8801b817effffffffffffffffffffffffffffffffffffffffffffffffffffffffffffff1916101561219c5760048361219591906143b0565b92506121ef565b60fc60f81b817effffffffffffffffffffffffffffffffffffffffffffffffffffffffffffff191610156121de576005836121d791906143b0565b92506121ee565b6006836121eb91906143b0565b92505b5b5b5b5b5082806121fe906141d8565b93505061206b565b829350505050919050565b8173ffffffffffffffffffffffffffffffffffffffff168373ffffffffffffffffffffffffffffffffffffffff161415612280576040517f08c379a000000000000000000000000000000000000000000000000000000000815260040161227790614452565b60405180910390fd5b80600560008573ffffffffffffffffffffffffffffffffffffffff1673ffffffffffffffffffffffffffffffffffffffff16815260200190815260200160002060008473ffffffffffffffffffffffffffffffffffffffff1673ffffffffffffffffffffffffffffffffffffffff16815260200190815260200160002060006101000a81548160ff0219169083151502179055508173ffffffffffffffffffffffffffffffffffffffff168373ffffffffffffffffffffffffffffffffffffffff167f17307eab39ab6107e8899845ad3d59bd9653f200f220920489ca2b5937696c3183604051612371919061303e565b60405180910390a3505050565b612389848484611df5565b61239584848484612a81565b6123d4576040517f08c379a00000000000000000000000000000000000000000000000000000000081526004016123cb906144e4565b60405180910390fd5b50505050565b606060405180602001604052806000815250905090565b60606123fc82611c54565b60006124066123da565b905060008151116124265760405180602001604052806000815250612451565b8061243084612467565b604051602001612441929190613d10565b6040516020818303038152906040525b915050919050565b600081600001549050919050565b606060008214156124af576040518060400160405280600181526020017f300000000000000000000000000000000000000000000000000000000000000081525090506125c3565b600082905060005b600082146124e15780806124ca906141d8565b915050600a826124da9190614533565b91506124b7565b60008167ffffffffffffffff8111156124fd576124fc613349565b5b6040519080825280601f01601f19166020018201604052801561252f5781602001600182028036833780820191505090505b5090505b600085146125bc57600182612548919061437c565b9150600a856125579190614564565b603061256391906143b0565b60f81b8183815181106125795761257861417a565b5b60200101907effffffffffffffffffffffffffffffffffffffffffffffffffffffffffffff1916908160001a905350600a856125b59190614533565b9450612533565b8093505050505b919050565b612664848484846040516024016125e29493929190614595565b6040516020818303038152906040527f9fd009f5000000000000000000000000000000000000000000000000000000007bffffffffffffffffffffffffffffffffffffffffffffffffffffffff19166020820180517bffffffffffffffffffffffffffffffffffffffffffffffffffffffff83818316178352505050506129e2565b50505050565b6060600082519050600081141561269357604051806020016040528060008152509150506127fd565b600060036002836126a491906143b0565b6126ae9190614533565b60046126ba91906145ef565b905060006020826126cb91906143b0565b67ffffffffffffffff8111156126e4576126e3613349565b5b6040519080825280601f01601f1916602001820160405280156127165781602001600182028036833780820191505090505b509050600060405180606001604052806040815260200161497f604091399050600181016020830160005b868110156127ba5760038101905062ffffff818a015116603f8160121c168401518060081b905060ff603f83600c1c1686015116810190508060081b905060ff603f8360061c1686015116810190508060081b905060ff603f831686015116810190508060e01b90508084526004840193505050612741565b5060038606600181146127d457600281146127e4576127ef565b613d3d60f01b60028303526127ef565b603d60f81b60018303525b508484525050819450505050505b919050565b6128988160405160240161281691906130f2565b6040516020818303038152906040527f41304fac000000000000000000000000000000000000000000000000000000007bffffffffffffffffffffffffffffffffffffffffffffffffffffffff19166020820180517bffffffffffffffffffffffffffffffffffffffffffffffffffffffff83818316178352505050506129e2565b50565b6128b5828260405180602001604052806000815250612c09565b5050565b6128c282612a0b565b612901576040517f08c379a00000000000000000000000000000000000000000000000000000000081526004016128f8906146bb565b60405180910390fd5b80600660008481526020019081526020016000209080519060200190612928929190612ee7565b505050565b6001816000016000828254019250508190555050565b6129dd83838360405160240161295b939291906146db565b6040516020818303038152906040527fa3f5c739000000000000000000000000000000000000000000000000000000007bffffffffffffffffffffffffffffffffffffffffffffffffffffffff19166020820180517bffffffffffffffffffffffffffffffffffffffffffffffffffffffff83818316178352505050506129e2565b505050565b60008151905060006a636f6e736f6c652e6c6f679050602083016000808483855afa5050505050565b60008073ffffffffffffffffffffffffffffffffffffffff166002600084815260200190815260200160002060009054906101000a900473ffffffffffffffffffffffffffffffffffffffff1673ffffffffffffffffffffffffffffffffffffffff1614159050919050565b505050565b505050565b6000612aa28473ffffffffffffffffffffffffffffffffffffffff16612c64565b15612bfc578373ffffffffffffffffffffffffffffffffffffffff1663150b7a02612acb611c9f565b8786866040518563ffffffff1660e01b8152600401612aed9493929190614775565b6020604051808303816000875af1925050508015612b2957506040513d601f19601f82011682018060405250810190612b2691906147d6565b60015b612bac573d8060008114612b59576040519150601f19603f3d011682016040523d82523d6000602084013e612b5e565b606091505b50600081511415612ba4576040517f08c379a0000000000000000000000000000000000000000000000000000000008152600401612b9b906144e4565b60405180910390fd5b805181602001fd5b63150b7a0260e01b7bffffffffffffffffffffffffffffffffffffffffffffffffffffffff1916817bffffffffffffffffffffffffffffffffffffffffffffffffffffffff191614915050612c01565b600190505b949350505050565b612c138383612c87565b612c206000848484612a81565b612c5f576040517f08c379a0000000000000000000000000000000000000000000000000000000008152600401612c56906144e4565b60405180910390fd5b505050565b6000808273ffffffffffffffffffffffffffffffffffffffff163b119050919050565b600073ffffffffffffffffffffffffffffffffffffffff168273ffffffffffffffffffffffffffffffffffffffff161415612cf7576040517f08c379a0000000000000000000000000000000000000000000000000000000008152600401612cee9061484f565b60405180910390fd5b612d0081612a0b565b15612d40576040517f08c379a0000000000000000000000000000000000000000000000000000000008152600401612d37906148bb565b60405180910390fd5b612d4c60008383612a77565b6001600360008473ffffffffffffffffffffffffffffffffffffffff1673ffffffffffffffffffffffffffffffffffffffff1681526020019081526020016000206000828254612d9c91906143b0565b92505081905550816002600083815260200190815260200160002060006101000a81548173ffffffffffffffffffffffffffffffffffffffff021916908373ffffffffffffffffffffffffffffffffffffffff160217905550808273ffffffffffffffffffffffffffffffffffffffff16600073ffffffffffffffffffffffffffffffffffffffff167fddf252ad1be2c89b69c2b068fc378daa952ba7f163c4a11628f55a4df523b3ef60405160405180910390a4612e5d60008383612a7c565b5050565b828054612e6d906138fe565b90600052602060002090601f016020900481019282612e8f5760008555612ed6565b82601f10612ea857803560ff1916838001178555612ed6565b82800160010185558215612ed6579182015b82811115612ed5578235825591602001919060010190612eba565b5b509050612ee39190612f6d565b5090565b828054612ef3906138fe565b90600052602060002090601f016020900481019282612f155760008555612f5c565b82601f10612f2e57805160ff1916838001178555612f5c565b82800160010185558215612f5c579182015b82811115612f5b578251825591602001919060010190612f40565b5b509050612f699190612f6d565b5090565b5b80821115612f86576000816000905550600101612f6e565b5090565b6000604051905090565b600080fd5b600080fd5b60007fffffffff0000000000000000000000000000000000000000000000000000000082169050919050565b612fd381612f9e565b8114612fde57600080fd5b50565b600081359050612ff081612fca565b92915050565b60006020828403121561300c5761300b612f94565b5b600061301a84828501612fe1565b91505092915050565b60008115159050919050565b61303881613023565b82525050565b6000602082019050613053600083018461302f565b92915050565b600081519050919050565b600082825260208201905092915050565b60005b83811015613093578082015181840152602081019050613078565b838111156130a2576000848401525b50505050565b6000601f19601f8301169050919050565b60006130c482613059565b6130ce8185613064565b93506130de818560208601613075565b6130e7816130a8565b840191505092915050565b6000602082019050818103600083015261310c81846130b9565b905092915050565b6000819050919050565b61312781613114565b811461313257600080fd5b50565b6000813590506131448161311e565b92915050565b6000602082840312156131605761315f612f94565b5b600061316e84828501613135565b91505092915050565b600073ffffffffffffffffffffffffffffffffffffffff82169050919050565b60006131a282613177565b9050919050565b6131b281613197565b82525050565b60006020820190506131cd60008301846131a9565b92915050565b6131dc81613197565b81146131e757600080fd5b50565b6000813590506131f9816131d3565b92915050565b6000806040838503121561321657613215612f94565b5b6000613224858286016131ea565b925050602061323585828601613135565b9150509250929050565b600080fd5b600080fd5b600080fd5b60008083601f8401126132645761326361323f565b5b8235905067ffffffffffffffff81111561328157613280613244565b5b60208301915083600182028301111561329d5761329c613249565b5b9250929050565b600080602083850312156132bb576132ba612f94565b5b600083013567ffffffffffffffff8111156132d9576132d8612f99565b5b6132e58582860161324e565b92509250509250929050565b60008060006060848603121561330a57613309612f94565b5b6000613318868287016131ea565b9350506020613329868287016131ea565b925050604061333a86828701613135565b9150509250925092565b600080fd5b7f4e487b7100000000000000000000000000000000000000000000000000000000600052604160045260246000fd5b613381826130a8565b810181811067ffffffffffffffff821117156133a05761339f613349565b5b80604052505050565b60006133b3612f8a565b90506133bf8282613378565b919050565b600067ffffffffffffffff8211156133df576133de613349565b5b6133e8826130a8565b9050602081019050919050565b82818337600083830152505050565b6000613417613412846133c4565b6133a9565b90508281526020810184848401111561343357613432613344565b5b61343e8482856133f5565b509392505050565b600082601f83011261345b5761345a61323f565b5b813561346b848260208601613404565b91505092915050565b60006020828403121561348a57613489612f94565b5b600082013567ffffffffffffffff8111156134a8576134a7612f99565b5b6134b484828501613446565b91505092915050565b6000602082840312156134d3576134d2612f94565b5b60006134e1848285016131ea565b91505092915050565b6134f381613114565b82525050565b600060208201905061350e60008301846134ea565b92915050565b600061351f82613177565b9050919050565b61352f81613514565b82525050565b600060208201905061354a6000830184613526565b92915050565b61355981613023565b811461356457600080fd5b50565b60008135905061357681613550565b92915050565b6000806040838503121561359357613592612f94565b5b60006135a1858286016131ea565b92505060206135b285828601613567565b9150509250929050565b600067ffffffffffffffff8211156135d7576135d6613349565b5b6135e0826130a8565b9050602081019050919050565b60006136006135fb846135bc565b6133a9565b90508281526020810184848401111561361c5761361b613344565b5b6136278482856133f5565b509392505050565b600082601f8301126136445761364361323f565b5b81356136548482602086016135ed565b91505092915050565b6000806000806080858703121561367757613676612f94565b5b6000613685878288016131ea565b9450506020613696878288016131ea565b93505060406136a787828801613135565b925050606085013567ffffffffffffffff8111156136c8576136c7612f99565b5b6136d48782880161362f565b91505092959194509250565b600080600080604085870312156136fa576136f9612f94565b5b600085013567ffffffffffffffff81111561371857613717612f99565b5b6137248782880161324e565b9450945050602085013567ffffffffffffffff81111561374757613746612f99565b5b6137538782880161324e565b925092505092959194509250565b6000806040838503121561377857613777612f94565b5b6000613786858286016131ea565b9250506020613797858286016131ea565b9150509250929050565b600081519050919050565b600082825260208201905092915050565b6000819050602082019050919050565b600082825260208201905092915050565b60006137e982613059565b6137f381856137cd565b9350613803818560208601613075565b61380c816130a8565b840191505092915050565b600061382383836137de565b905092915050565b6000602082019050919050565b6000613843826137a1565b61384d81856137ac565b93508360208202850161385f856137bd565b8060005b8581101561389b578484038952815161387c8582613817565b94506138878361382b565b925060208a01995050600181019050613863565b50829750879550505050505092915050565b600060208201905081810360008301526138c78184613838565b905092915050565b7f4e487b7100000000000000000000000000000000000000000000000000000000600052602260045260246000fd5b6000600282049050600182168061391657607f821691505b6020821081141561392a576139296138cf565b5b50919050565b7f4552433732313a20617070726f76616c20746f2063757272656e74206f776e6560008201527f7200000000000000000000000000000000000000000000000000000000000000602082015250565b600061398c602183613064565b915061399782613930565b604082019050919050565b600060208201905081810360008301526139bb8161397f565b9050919050565b7f4552433732313a20617070726f76652063616c6c6572206973206e6f7420746f60008201527f6b656e206f776e6572206e6f7220617070726f76656420666f7220616c6c0000602082015250565b6000613a1e603e83613064565b9150613a29826139c2565b604082019050919050565b60006020820190508181036000830152613a4d81613a11565b9050919050565b600081905092915050565b6000613a6b8385613a54565b9350613a788385846133f5565b82840190509392505050565b6000613a91828486613a5f565b91508190509392505050565b7f4552433732313a2063616c6c6572206973206e6f7420746f6b656e206f776e6560008201527f72206e6f7220617070726f766564000000000000000000000000000000000000602082015250565b6000613af9602e83613064565b9150613b0482613a9d565b604082019050919050565b60006020820190508181036000830152613b2881613aec565b9050919050565b600081905092915050565b50565b6000613b4a600083613b2f565b9150613b5582613b3a565b600082019050919050565b6000613b6b82613b3d565b9150819050919050565b7f4661696c656420746f207769746864726177204d617469630000000000000000600082015250565b6000613bab601883613064565b9150613bb682613b75565b602082019050919050565b60006020820190508181036000830152613bda81613b9e565b9050919050565b7f4552433732313a20696e76616c696420746f6b656e2049440000000000000000600082015250565b6000613c17601883613064565b9150613c2282613be1565b602082019050919050565b60006020820190508181036000830152613c4681613c0a565b9050919050565b7f4552433732313a2061646472657373207a65726f206973206e6f74206120766160008201527f6c6964206f776e65720000000000000000000000000000000000000000000000602082015250565b6000613ca9602983613064565b9150613cb482613c4d565b604082019050919050565b60006020820190508181036000830152613cd881613c9c565b9050919050565b6000613cea82613059565b613cf48185613a54565b9350613d04818560208601613075565b80840191505092915050565b6000613d1c8285613cdf565b9150613d288284613cdf565b91508190509392505050565b6000613d408385613064565b9350613d4d8385846133f5565b613d56836130a8565b840190509392505050565b60006020820190508181036000830152613d7c818486613d34565b90509392505050565b7f4e6f7420656e6f756768204d6174696300000000000000000000000000000000600082015250565b6000613dbb601083613064565b9150613dc682613d85565b602082019050919050565b60006020820190508181036000830152613dea81613dae565b9050919050565b7f2e00000000000000000000000000000000000000000000000000000000000000600082015250565b6000613e27600183613a54565b9150613e3282613df1565b600182019050919050565b60008190508160005260206000209050919050565b60008154613e5f816138fe565b613e698186613a54565b94506001821660008114613e845760018114613e9557613ec8565b60ff19831686528186019350613ec8565b613e9e85613e3d565b60005b83811015613ec057815481890152600182019150602081019050613ea1565b838801955050505b50505092915050565b6000613ede828587613a5f565b9150613ee982613e1a565b9150613ef58284613e52565b9150819050949350505050565b6000613f0e8286613e52565b9150613f1a8285613cdf565b9150613f268284613e52565b9150819050949350505050565b7f7b226e616d65223a202200000000000000000000000000000000000000000000600082015250565b6000613f69600a83613a54565b9150613f7482613f33565b600a82019050919050565b7f222c20226465736372697074696f6e223a20224120646f6d61696e206f6e207460008201527f6865205669626573206e616d652073657276696365222c2022696d616765223a60208201527f2022646174613a696d6167652f7376672b786d6c3b6261736536342c00000000604082015250565b6000614001605c83613a54565b915061400c82613f7f565b605c82019050919050565b7f222c226c656e677468223a220000000000000000000000000000000000000000600082015250565b600061404d600c83613a54565b915061405882614017565b600c82019050919050565b7f227d000000000000000000000000000000000000000000000000000000000000600082015250565b6000614099600283613a54565b91506140a482614063565b600282019050919050565b60006140ba82613f5c565b91506140c68286613cdf565b91506140d182613ff4565b91506140dd8285613cdf565b91506140e882614040565b91506140f48284613cdf565b91506140ff8261408c565b9150819050949350505050565b7f646174613a6170706c69636174696f6e2f6a736f6e3b6261736536342c000000600082015250565b6000614142601d83613a54565b915061414d8261410c565b601d82019050919050565b600061416382614135565b915061416f8284613cdf565b915081905092915050565b7f4e487b7100000000000000000000000000000000000000000000000000000000600052603260045260246000fd5b7f4e487b7100000000000000000000000000000000000000000000000000000000600052601160045260246000fd5b60006141e382613114565b91507fffffffffffffffffffffffffffffffffffffffffffffffffffffffffffffffff821415614216576142156141a9565b5b600182019050919050565b6000604082019050818103600083015261423b81856130b9565b9050818103602083015261424f81846130b9565b90509392505050565b7f4552433732313a207472616e736665722066726f6d20696e636f72726563742060008201527f6f776e6572000000000000000000000000000000000000000000000000000000602082015250565b60006142b4602583613064565b91506142bf82614258565b604082019050919050565b600060208201905081810360008301526142e3816142a7565b9050919050565b7f4552433732313a207472616e7366657220746f20746865207a65726f2061646460008201527f7265737300000000000000000000000000000000000000000000000000000000602082015250565b6000614346602483613064565b9150614351826142ea565b604082019050919050565b6000602082019050818103600083015261437581614339565b9050919050565b600061438782613114565b915061439283613114565b9250828210156143a5576143a46141a9565b5b828203905092915050565b60006143bb82613114565b91506143c683613114565b9250827fffffffffffffffffffffffffffffffffffffffffffffffffffffffffffffffff038211156143fb576143fa6141a9565b5b828201905092915050565b7f4552433732313a20617070726f766520746f2063616c6c657200000000000000600082015250565b600061443c601983613064565b915061444782614406565b602082019050919050565b6000602082019050818103600083015261446b8161442f565b9050919050565b7f4552433732313a207472616e7366657220746f206e6f6e20455243373231526560008201527f63656976657220696d706c656d656e7465720000000000000000000000000000602082015250565b60006144ce603283613064565b91506144d982614472565b604082019050919050565b600060208201905081810360008301526144fd816144c1565b9050919050565b7f4e487b7100000000000000000000000000000000000000000000000000000000600052601260045260246000fd5b600061453e82613114565b915061454983613114565b92508261455957614558614504565b5b828204905092915050565b600061456f82613114565b915061457a83613114565b92508261458a57614589614504565b5b828206905092915050565b600060808201905081810360008301526145af81876130b9565b905081810360208301526145c381866130b9565b905081810360408301526145d781856130b9565b90506145e660608301846134ea565b95945050505050565b60006145fa82613114565b915061460583613114565b9250817fffffffffffffffffffffffffffffffffffffffffffffffffffffffffffffffff048311821515161561463e5761463d6141a9565b5b828202905092915050565b7f45524337323155524953746f726167653a2055524920736574206f66206e6f6e60008201527f6578697374656e7420746f6b656e000000000000000000000000000000000000602082015250565b60006146a5602e83613064565b91506146b082614649565b604082019050919050565b600060208201905081810360008301526146d481614698565b9050919050565b600060608201905081810360008301526146f581866130b9565b905061470460208301856134ea565b818103604083015261471681846130b9565b9050949350505050565b600081519050919050565b600082825260208201905092915050565b600061474782614720565b614751818561472b565b9350614761818560208601613075565b61476a816130a8565b840191505092915050565b600060808201905061478a60008301876131a9565b61479760208301866131a9565b6147a460408301856134ea565b81810360608301526147b6818461473c565b905095945050505050565b6000815190506147d081612fca565b92915050565b6000602082840312156147ec576147eb612f94565b5b60006147fa848285016147c1565b91505092915050565b7f4552433732313a206d696e7420746f20746865207a65726f2061646472657373600082015250565b6000614839602083613064565b915061484482614803565b602082019050919050565b600060208201905081810360008301526148688161482c565b9050919050565b7f4552433732313a20746f6b656e20616c7265616479206d696e74656400000000600082015250565b60006148a5601c83613064565b91506148b08261486f565b602082019050919050565b600060208201905081810360008301526148d481614898565b905091905056fe0a2d2d2d2d2d2d2d2d2d2d2d2d2d2d2d2d2d2d2d2d2d2d2d2d2d2d2d2d2d2d2d2d2d2d2d2d2d2d2d2d2d2d2d2d2d2d2d2d2d2d2d2d2d2d2d2d5265676973746572696e672025732e2573206f6e2074686520636f6e7472616374207769746820746f6b656e49442025642d2d2d2d2d2d2d2d2d2d2d2d2d2d2d2d2d2d2d2d2d2d2d2d2d2d2d2d2d2d2d2d2d2d2d2d2d2d2d2d2d2d2d2d2d2d2d2d2d2d2d2d2d2d2d2d0a4142434445464748494a4b4c4d4e4f505152535455565758595a6162636465666768696a6b6c6d6e6f707172737475767778797a303132333435363738392b2fa2646970667358221220d0a7242d0fc3435f976625f4e82568c3866c847aafa61519af0515a9280bf2f464736f6c634300080a00333c73766720786d6c6e733d22687474703a2f2f7777772e77332e6f72672f323030302f737667222077696474683d2232373022206865696768743d22323730222066696c6c3d226e6f6e65223e3c706174682066696c6c3d2275726c282342292220643d224d302030683237307632373048307a222f3e3c646566733e3c66696c7465722069643d22412220636f6c6f722d696e746572706f6c6174696f6e2d66696c746572733d2273524742222066696c746572556e6974733d227573657253706163654f6e55736522206865696768743d22323730222077696474683d22323730223e3c666544726f70536861646f772064783d2230222064793d22312220737464446576696174696f6e3d22322220666c6f6f642d6f7061636974793d222e323235222077696474683d223230302522206865696768743d2232303025222f3e3c2f66696c7465723e3c2f646566733e3c7061746820643d224d37322e3836332034322e393439632d2e3636382d2e3338372d312e3432362d2e35392d322e3139372d2e3539732d312e3532392e3230342d322e3139372e35396c2d31302e30383120362e3033322d362e383520332e3933342d31302e30383120362e303332632d2e3636382e3338372d312e3432362e35392d322e3139372e3539732d312e3532392d2e3230342d322e3139372d2e35396c2d382e3031332d342e37323161342e353220342e35322030203020312d312e3538392d312e363136632d2e3338342d2e3636352d2e3539342d312e3431382d2e3630382d322e313837762d392e3331632d2e3031332d2e3737352e3138352d312e3533382e3537322d322e32303861342e323520342e323520302030203120312e3632352d312e3539356c372e3838342d342e3539632e3636382d2e33383720312e3432362d2e353920322e3139372d2e353973312e3532392e32303420322e3139372e35396c372e38383420342e353961342e353220342e353220302030203120312e35383920312e363136632e3338342e3636352e35393420312e3431382e36303820322e31383776362e3033326c362e38352d342e303635762d362e303332632e3031332d2e3737352d2e3138352d312e3533382d2e3537322d322e32303861342e323520342e32352030203020302d312e3632352d312e3539354c34312e3435362032342e3539632d2e3636382d2e3338372d312e3432362d2e35392d322e3139372d2e3539732d312e3532392e3230342d322e3139372e35396c2d31342e38363420382e36353561342e323520342e32352030203020302d312e36323520312e353935632d2e3338372e36372d2e35383520312e3433342d2e35373220322e3230387631372e343431632d2e3031332e3737352e31383520312e3533382e35373220322e32303861342e323520342e323520302030203020312e36323520312e3539356c31342e38363420382e363535632e3636382e33383720312e3432362e353920322e3139372e353973312e3532392d2e32303420322e3139372d2e35396c31302e3038312d352e39303120362e38352d342e3036352031302e3038312d352e393031632e3636382d2e33383720312e3432362d2e353920322e3139372d2e353973312e3532392e32303420322e3139372e35396c372e38383420342e353961342e353220342e353220302030203120312e35383920312e363136632e3338342e3636352e35393420312e3431382e36303820322e31383776392e333131632e3031332e3737352d2e31383520312e3533382d2e35373220322e32303861342e323520342e32352030203020312d312e36323520312e3539356c2d372e38383420342e373231632d2e3636382e3338372d312e3432362e35392d322e3139372e3539732d312e3532392d2e3230342d322e3139372d2e35396c2d372e3838342d342e353961342e353220342e35322030203020312d312e3538392d312e363136632d2e3338352d2e3636352d2e3539342d312e3431382d2e3630382d322e313837762d362e3033326c2d362e383520342e30363576362e303332632d2e3031332e3737352e31383520312e3533382e35373220322e32303861342e323520342e323520302030203020312e36323520312e3539356c31342e38363420382e363535632e3636382e33383720312e3432362e353920322e3139372e353973312e3532392d2e32303420322e3139372d2e35396c31342e3836342d382e363535632e3635372d2e33393420312e3230342d2e393520312e3538392d312e363136732e3539342d312e3431382e3630392d322e3138375635352e353338632e3031332d2e3737352d2e3138352d312e3533382d2e3537322d322e32303861342e323520342e32352030203020302d312e3632352d312e3539356c2d31342e3939332d382e3738367a222066696c6c3d2223666666222f3e3c646566733e3c6c696e6561724772616469656e742069643d2242222078313d2230222079313d2230222078323d22323730222079323d2232373022206772616469656e74556e6974733d227573657253706163654f6e557365223e3c73746f702073746f702d636f6c6f723d2223636235656565222f3e3c73746f70206f66667365743d2231222073746f702d636f6c6f723d2223306364376534222073746f702d6f7061636974793d222e3939222f3e3c2f6c696e6561724772616469656e743e3c2f646566733e3c7465787420783d2233322e352220793d223233312220666f6e742d73697a653d223237222066696c6c3d2223666666222066696c7465723d2275726c282341292220666f6e742d66616d696c793d22506c7573204a616b617274612053616e732c44656a6156752053616e732c4e6f746f20436f6c6f7220456d6f6a692c4170706c6520436f6c6f7220456d6f6a692c73616e732d73657269662220666f6e742d7765696768743d22626f6c64223e",
    "linkReferences": {},
    "deployedLinkReferences": {}
}